{
  "_format": "hh-sol-artifact-1",
  "contractName": "MantleMindVault",
  "sourceName": "contracts/MantleMindVault.sol",
  "abi": [
    {
      "inputs": [],
      "stateMutability": "nonpayable",
      "type": "constructor"
    },
    {
      "anonymous": false,
      "inputs": [
        {
          "indexed": true,
          "internalType": "address",
          "name": "user",
          "type": "address"
        },
        {
          "indexed": false,
          "internalType": "uint256",
          "name": "amount",
          "type": "uint256"
        }
      ],
      "name": "Deposited",
      "type": "event"
    },
    {
      "anonymous": false,
      "inputs": [
        {
          "indexed": true,
          "internalType": "address",
          "name": "previousOwner",
          "type": "address"
        },
        {
          "indexed": true,
          "internalType": "address",
          "name": "newOwner",
          "type": "address"
        }
      ],
      "name": "OwnershipTransferred",
      "type": "event"
    },
    {
      "anonymous": false,
      "inputs": [
        {
          "indexed": true,
          "internalType": "uint256",
          "name": "strategyId",
          "type": "uint256"
        },
        {
          "indexed": false,
          "internalType": "string",
          "name": "name",
          "type": "string"
        },
        {
          "indexed": false,
          "internalType": "address",
          "name": "agentAddress",
          "type": "address"
        }
      ],
      "name": "StrategyCreated",
      "type": "event"
    },
    {
      "anonymous": false,
      "inputs": [
        {
          "indexed": true,
          "internalType": "uint256",
          "name": "strategyId",
          "type": "uint256"
        },
        {
          "indexed": false,
          "internalType": "uint256",
          "name": "amount",
          "type": "uint256"
        }
      ],
      "name": "StrategyExecuted",
      "type": "event"
    },
    {
      "anonymous": false,
      "inputs": [
        {
          "indexed": true,
          "internalType": "address",
          "name": "user",
          "type": "address"
        },
        {
          "indexed": false,
          "internalType": "uint256",
          "name": "amount",
          "type": "uint256"
        }
      ],
      "name": "Withdrawn",
      "type": "event"
    },
    {
      "inputs": [
        {
          "internalType": "string",
          "name": "name",
          "type": "string"
        },
        {
          "internalType": "address",
          "name": "agentAddress",
          "type": "address"
        }
      ],
      "name": "createStrategy",
      "outputs": [
        {
          "internalType": "uint256",
          "name": "",
          "type": "uint256"
        }
      ],
      "stateMutability": "nonpayable",
      "type": "function"
    },
    {
      "inputs": [],
      "name": "deposit",
      "outputs": [],
      "stateMutability": "payable",
      "type": "function"
    },
    {
      "inputs": [
        {
          "internalType": "uint256",
          "name": "strategyId",
          "type": "uint256"
        },
        {
          "internalType": "uint256",
          "name": "amount",
          "type": "uint256"
        }
      ],
      "name": "executeStrategy",
      "outputs": [],
      "stateMutability": "nonpayable",
      "type": "function"
    },
    {
      "inputs": [
        {
          "internalType": "address",
          "name": "user",
          "type": "address"
        }
      ],
      "name": "getBalance",
      "outputs": [
        {
          "internalType": "uint256",
          "name": "",
          "type": "uint256"
        }
      ],
      "stateMutability": "view",
      "type": "function"
    },
    {
      "inputs": [
        {
          "internalType": "uint256",
          "name": "strategyId",
          "type": "uint256"
        }
      ],
      "name": "getStrategy",
      "outputs": [
        {
          "components": [
            {
              "internalType": "uint256",
              "name": "id",
              "type": "uint256"
            },
            {
              "internalType": "string",
              "name": "name",
              "type": "string"
            },
            {
              "internalType": "address",
              "name": "agentAddress",
              "type": "address"
            },
            {
              "internalType": "uint256",
              "name": "allocatedAmount",
              "type": "uint256"
            },
            {
              "internalType": "uint256",
              "name": "createdAt",
              "type": "uint256"
            },
            {
              "internalType": "bool",
              "name": "isActive",
              "type": "bool"
            }
          ],
          "internalType": "struct MantleMindVault.Strategy",
          "name": "",
          "type": "tuple"
        }
      ],
      "stateMutability": "view",
      "type": "function"
    },
    {
      "inputs": [],
      "name": "getTotalStrategies",
      "outputs": [
        {
          "internalType": "uint256",
          "name": "",
          "type": "uint256"
        }
      ],
      "stateMutability": "view",
      "type": "function"
    },
    {
      "inputs": [
        {
          "internalType": "address",
          "name": "user",
          "type": "address"
        }
      ],
      "name": "getVault",
      "outputs": [
        {
          "components": [
            {
              "internalType": "uint256",
              "name": "balance",
              "type": "uint256"
            },
            {
              "internalType": "uint256",
              "name": "depositedAt",
              "type": "uint256"
            },
            {
              "internalType": "uint256",
              "name": "totalDeposited",
              "type": "uint256"
            },
            {
              "internalType": "uint256",
              "name": "totalWithdrawn",
              "type": "uint256"
            },
            {
              "internalType": "bool",
              "name": "isActive",
              "type": "bool"
            }
          ],
          "internalType": "struct MantleMindVault.UserVault",
          "name": "",
          "type": "tuple"
        }
      ],
      "stateMutability": "view",
      "type": "function"
    },
    {
      "inputs": [],
      "name": "owner",
      "outputs": [
        {
          "internalType": "address",
          "name": "",
          "type": "address"
        }
      ],
      "stateMutability": "view",
      "type": "function"
    },
    {
      "inputs": [],
      "name": "renounceOwnership",
      "outputs": [],
      "stateMutability": "nonpayable",
      "type": "function"
    },
    {
      "inputs": [
        {
          "internalType": "uint256",
          "name": "",
          "type": "uint256"
        }
      ],
      "name": "strategies",
      "outputs": [
        {
          "internalType": "uint256",
          "name": "id",
          "type": "uint256"
        },
        {
          "internalType": "string",
          "name": "name",
          "type": "string"
        },
        {
          "internalType": "address",
          "name": "agentAddress",
          "type": "address"
        },
        {
          "internalType": "uint256",
          "name": "allocatedAmount",
          "type": "uint256"
        },
        {
          "internalType": "uint256",
          "name": "createdAt",
          "type": "uint256"
        },
        {
          "internalType": "bool",
          "name": "isActive",
          "type": "bool"
        }
      ],
      "stateMutability": "view",
      "type": "function"
    },
    {
      "inputs": [],
      "name": "totalVaultBalance",
      "outputs": [
        {
          "internalType": "uint256",
          "name": "",
          "type": "uint256"
        }
      ],
      "stateMutability": "view",
      "type": "function"
    },
    {
      "inputs": [
        {
          "internalType": "address",
          "name": "newOwner",
          "type": "address"
        }
      ],
      "name": "transferOwnership",
      "outputs": [],
      "stateMutability": "nonpayable",
      "type": "function"
    },
    {
      "inputs": [
        {
          "internalType": "address",
          "name": "",
          "type": "address"
        }
      ],
      "name": "vaults",
      "outputs": [
        {
          "internalType": "uint256",
          "name": "balance",
          "type": "uint256"
        },
        {
          "internalType": "uint256",
          "name": "depositedAt",
          "type": "uint256"
        },
        {
          "internalType": "uint256",
          "name": "totalDeposited",
          "type": "uint256"
        },
        {
          "internalType": "uint256",
          "name": "totalWithdrawn",
          "type": "uint256"
        },
        {
          "internalType": "bool",
          "name": "isActive",
          "type": "bool"
        }
      ],
      "stateMutability": "view",
      "type": "function"
    },
    {
      "inputs": [
        {
          "internalType": "uint256",
          "name": "amount",
          "type": "uint256"
        }
      ],
      "name": "withdraw",
      "outputs": [],
      "stateMutability": "nonpayable",
      "type": "function"
    }
  ],
  "bytecode": "0x608060405234801561001057600080fd5b5061001a33610023565b60018055610073565b600080546001600160a01b038381166001600160a01b0319831681178455604051919092169283917f8be0079c531659141344cd1fd0a4f28419497f9722a3daafe3b4186f6b6457e09190a35050565b61116c806100826000396000f3fe6080604052600436106100dd5760003560e01c8063cc5d195e1161007f578063d574ea3d11610059578063d574ea3d146102b3578063f101e82b146102e5578063f2fde38b14610305578063f8b2cb4f1461032557600080fd5b8063cc5d195e14610268578063cfc0cc341461027e578063d0e30db0146102ab57600080fd5b8063715018a6116100bb578063715018a61461019f5780638da5cb5b146101b457806399fe7396146101dc578063a622ee7c146101f157600080fd5b80630eb9af38146100e25780632c65720c1461014f5780632e1a7d4d1461017d575b600080fd5b3480156100ee57600080fd5b506101026100fd366004610d46565b61035b565b6040516101469190600060a0820190508251825260208301516020830152604083015160408301526060830151606083015260808301511515608083015292915050565b60405180910390f35b34801561015b57600080fd5b5061016f61016a366004610d7e565b6103e9565b604051908152602001610146565b34801561018957600080fd5b5061019d610198366004610e40565b61054d565b005b3480156101ab57600080fd5b5061019d6106ce565b3480156101c057600080fd5b506000546040516001600160a01b039091168152602001610146565b3480156101e857600080fd5b5060045461016f565b3480156101fd57600080fd5b5061023e61020c366004610d46565b600260208190526000918252604090912080546001820154928201546003830154600490930154919392909160ff1685565b6040805195865260208601949094529284019190915260608301521515608082015260a001610146565b34801561027457600080fd5b5061016f60055481565b34801561028a57600080fd5b5061029e610299366004610e40565b6106e2565b6040516101469190610e9f565b61019d61081d565b3480156102bf57600080fd5b506102d36102ce366004610e40565b61094c565b60405161014696959493929190610f03565b3480156102f157600080fd5b5061019d610300366004610f4c565b610a17565b34801561031157600080fd5b5061019d610320366004610d46565b610bb1565b34801561033157600080fd5b5061016f610340366004610d46565b6001600160a01b031660009081526002602052604090205490565b61038f6040518060a00160405280600081526020016000815260200160008152602001600081526020016000151581525090565b506001600160a01b0316600090815260026020818152604092839020835160a081018552815481526001820154928101929092529182015492810192909252600381015460608301526004015460ff161515608082015290565b60006001600160a01b03821661043e5760405162461bcd60e51b8152602060048201526015602482015274496e76616c6964206167656e74206164647265737360581b60448201526064015b60405180910390fd5b6004805490600061044e83610f84565b90915550506004546040805160c08101825282815260208082018781526001600160a01b03871683850152600060608401819052426080850152600160a08501819052868252600390935293909320825181559251919291908201906104b49082611026565b506040828101516002830180546001600160a01b0319166001600160a01b03909216919091179055606083015160038301556080830151600483015560a0909201516005909101805460ff19169115159190911790555181907fba11ab3fd754e3b0f6f5c37b7e44f61e2cc14eb10e826356458766b92d87f66c9061053c90879087906110e6565b60405180910390a290505b92915050565b610555610c27565b336000908152600260205260409020548111156105ab5760405162461bcd60e51b8152602060048201526014602482015273496e73756666696369656e742062616c616e636560601b6044820152606401610435565b600081116105fb5760405162461bcd60e51b815260206004820152601d60248201527f416d6f756e74206d7573742062652067726561746572207468616e20300000006044820152606401610435565b336000908152600260205260408120805483929061061a908490611110565b90915550503360009081526002602052604081206003018054839290610641908490611123565b92505081905550806005600082825461065a9190611110565b9091555050604051339082156108fc029083906000818181858888f1935050505015801561068c573d6000803e3d6000fd5b5060405181815233907f7084f5476618d8e60b11ef0d7d3f06914655adb8793e28ff7f018d4c76d505d59060200160405180910390a26106cb60018055565b50565b6106d6610c80565b6106e06000610cda565b565b6107266040518060c00160405280600081526020016060815260200160006001600160a01b0316815260200160008152602001600081526020016000151581525090565b600360008381526020019081526020016000206040518060c00160405290816000820154815260200160018201805461075e90610f9d565b80601f016020809104026020016040519081016040528092919081815260200182805461078a90610f9d565b80156107d75780601f106107ac576101008083540402835291602001916107d7565b820191906000526020600020905b8154815290600101906020018083116107ba57829003601f168201915b505050918352505060028201546001600160a01b03166020820152600382015460408201526004820154606082015260059091015460ff16151560809091015292915050565b610825610c27565b600034116108835760405162461bcd60e51b815260206004820152602560248201527f4465706f73697420616d6f756e74206d75737420626520677265617465722074604482015264068616e20360dc1b6064820152608401610435565b33600090815260026020526040812080543492906108a2908490611123565b909155505033600090815260026020819052604082200180543492906108c9908490611123565b9091555050336000908152600260205260408120426001808301919091556004909101805460ff1916909117905560058054349290610909908490611123565b909155505060405134815233907f2da466a7b24304f47e87fa2e1e5a81b9831ce54fec19055ce277ca2f39ba42c49060200160405180910390a26106e060018055565b6003602052600090815260409020805460018201805491929161096e90610f9d565b80601f016020809104026020016040519081016040528092919081815260200182805461099a90610f9d565b80156109e75780601f106109bc576101008083540402835291602001916109e7565b820191906000526020600020905b8154815290600101906020018083116109ca57829003601f168201915b5050505060028301546003840154600485015460059095015493946001600160a01b039092169390925060ff1686565b610a1f610c27565b60008281526003602052604090206005015460ff16610a765760405162461bcd60e51b81526020600482015260136024820152725374726174656779206e6f742061637469766560681b6044820152606401610435565b33600090815260026020526040902054811115610ad55760405162461bcd60e51b815260206004820152601a60248201527f496e73756666696369656e74207661756c742062616c616e63650000000000006044820152606401610435565b60008111610b255760405162461bcd60e51b815260206004820152601d60248201527f416d6f756e74206d7573742062652067726561746572207468616e20300000006044820152606401610435565b3360009081526002602052604081208054839290610b44908490611110565b909155505060008281526003602081905260408220018054839290610b6a908490611123565b909155505060405181815282907fe4a7d2b149c52fdbb0a7ac58b4eac23900957e07caa30b4b1d0192223a1f740f9060200160405180910390a2610bad60018055565b5050565b610bb9610c80565b6001600160a01b038116610c1e5760405162461bcd60e51b815260206004820152602660248201527f4f776e61626c653a206e6577206f776e657220697320746865207a65726f206160448201526564647265737360d01b6064820152608401610435565b6106cb81610cda565b600260015403610c795760405162461bcd60e51b815260206004820152601f60248201527f5265656e7472616e637947756172643a207265656e7472616e742063616c6c006044820152606401610435565b6002600155565b6000546001600160a01b031633146106e05760405162461bcd60e51b815260206004820181905260248201527f4f776e61626c653a2063616c6c6572206973206e6f7420746865206f776e65726044820152606401610435565b600080546001600160a01b038381166001600160a01b0319831681178455604051919092169283917f8be0079c531659141344cd1fd0a4f28419497f9722a3daafe3b4186f6b6457e09190a35050565b80356001600160a01b0381168114610d4157600080fd5b919050565b600060208284031215610d5857600080fd5b610d6182610d2a565b9392505050565b634e487b7160e01b600052604160045260246000fd5b60008060408385031215610d9157600080fd5b823567ffffffffffffffff80821115610da957600080fd5b818501915085601f830112610dbd57600080fd5b813581811115610dcf57610dcf610d68565b604051601f8201601f19908116603f01168101908382118183101715610df757610df7610d68565b81604052828152886020848701011115610e1057600080fd5b826020860160208301376000602084830101528096505050505050610e3760208401610d2a565b90509250929050565b600060208284031215610e5257600080fd5b5035919050565b6000815180845260005b81811015610e7f57602081850181015186830182015201610e63565b506000602082860101526020601f19601f83011685010191505092915050565b60208152815160208201526000602083015160c06040840152610ec560e0840182610e59565b905060018060a01b03604085015116606084015260608401516080840152608084015160a084015260a0840151151560c08401528091505092915050565b86815260c060208201526000610f1c60c0830188610e59565b6001600160a01b039690961660408301525060608101939093526080830191909152151560a09091015292915050565b60008060408385031215610f5f57600080fd5b50508035926020909101359150565b634e487b7160e01b600052601160045260246000fd5b600060018201610f9657610f96610f6e565b5060010190565b600181811c90821680610fb157607f821691505b602082108103610fd157634e487b7160e01b600052602260045260246000fd5b50919050565b601f82111561102157600081815260208120601f850160051c81016020861015610ffe5750805b601f850160051c820191505b8181101561101d5782815560010161100a565b5050505b505050565b815167ffffffffffffffff81111561104057611040610d68565b6110548161104e8454610f9d565b84610fd7565b602080601f83116001811461108957600084156110715750858301515b600019600386901b1c1916600185901b17855561101d565b600085815260208120601f198616915b828110156110b857888601518255948401946001909101908401611099565b50858210156110d65787850151600019600388901b60f8161c191681555b5050505050600190811b01905550565b6040815260006110f96040830185610e59565b905060018060a01b03831660208301529392505050565b8181038181111561054757610547610f6e565b8082018082111561054757610547610f6e56fea26469706673582212203dc68ae9c0b734b527e91f7cbe2e924e4f0598f5c1e305ee0d160817b3ede21c64736f6c63430008140033",
  "linkReferences": {},
  "deployedLinkReferences": {}
}