{
  "_format": "hh-sol-artifact-1",
  "contractName": "ERC8004Identity",
  "sourceName": "contracts/ERC8004Identity.sol",
  "abi": [
    {
      "inputs": [],
      "stateMutability": "nonpayable",
      "type": "constructor"
    },
    {
      "anonymous": false,
      "inputs": [
        {
          "indexed": true,
          "internalType": "address",
          "name": "owner",
          "type": "address"
        },
        {
          "indexed": true,
          "internalType": "address",
          "name": "approved",
          "type": "address"
        },
        {
          "indexed": true,
          "internalType": "uint256",
          "name": "tokenId",
          "type": "uint256"
        }
      ],
      "name": "Approval",
      "type": "event"
    },
    {
      "anonymous": false,
      "inputs": [
        {
          "indexed": true,
          "internalType": "address",
          "name": "owner",
          "type": "address"
        },
        {
          "indexed": true,
          "internalType": "address",
          "name": "operator",
          "type": "address"
        },
        {
          "indexed": false,
          "internalType": "bool",
          "name": "approved",
          "type": "bool"
        }
      ],
      "name": "ApprovalForAll",
      "type": "event"
    },
    {
      "anonymous": false,
      "inputs": [
        {
          "indexed": true,
          "internalType": "uint256",
          "name": "tokenId",
          "type": "uint256"
        },
        {
          "indexed": false,
          "internalType": "string",
          "name": "agentName",
          "type": "string"
        },
        {
          "indexed": false,
          "internalType": "string",
          "name": "role",
          "type": "string"
        },
        {
          "indexed": true,
          "internalType": "address",
          "name": "owner",
          "type": "address"
        }
      ],
      "name": "IdentityMinted",
      "type": "event"
    },
    {
      "anonymous": false,
      "inputs": [
        {
          "indexed": true,
          "internalType": "address",
          "name": "previousOwner",
          "type": "address"
        },
        {
          "indexed": true,
          "internalType": "address",
          "name": "newOwner",
          "type": "address"
        }
      ],
      "name": "OwnershipTransferred",
      "type": "event"
    },
    {
      "anonymous": false,
      "inputs": [
        {
          "indexed": true,
          "internalType": "uint256",
          "name": "tokenId",
          "type": "uint256"
        },
        {
          "indexed": false,
          "internalType": "uint256",
          "name": "newReputation",
          "type": "uint256"
        }
      ],
      "name": "ReputationUpdated",
      "type": "event"
    },
    {
      "anonymous": false,
      "inputs": [
        {
          "indexed": true,
          "internalType": "uint256",
          "name": "tokenId",
          "type": "uint256"
        },
        {
          "indexed": false,
          "internalType": "bool",
          "name": "success",
          "type": "bool"
        }
      ],
      "name": "TaskCompleted",
      "type": "event"
    },
    {
      "anonymous": false,
      "inputs": [
        {
          "indexed": true,
          "internalType": "address",
          "name": "from",
          "type": "address"
        },
        {
          "indexed": true,
          "internalType": "address",
          "name": "to",
          "type": "address"
        },
        {
          "indexed": true,
          "internalType": "uint256",
          "name": "tokenId",
          "type": "uint256"
        }
      ],
      "name": "Transfer",
      "type": "event"
    },
    {
      "inputs": [
        {
          "internalType": "address",
          "name": "to",
          "type": "address"
        },
        {
          "internalType": "uint256",
          "name": "tokenId",
          "type": "uint256"
        }
      ],
      "name": "approve",
      "outputs": [],
      "stateMutability": "nonpayable",
      "type": "function"
    },
    {
      "inputs": [
        {
          "internalType": "address",
          "name": "owner",
          "type": "address"
        }
      ],
      "name": "balanceOf",
      "outputs": [
        {
          "internalType": "uint256",
          "name": "",
          "type": "uint256"
        }
      ],
      "stateMutability": "view",
      "type": "function"
    },
    {
      "inputs": [
        {
          "internalType": "uint256",
          "name": "tokenId",
          "type": "uint256"
        }
      ],
      "name": "deactivateIdentity",
      "outputs": [],
      "stateMutability": "nonpayable",
      "type": "function"
    },
    {
      "inputs": [
        {
          "internalType": "uint256",
          "name": "tokenId",
          "type": "uint256"
        }
      ],
      "name": "getApproved",
      "outputs": [
        {
          "internalType": "address",
          "name": "",
          "type": "address"
        }
      ],
      "stateMutability": "view",
      "type": "function"
    },
    {
      "inputs": [
        {
          "internalType": "uint256",
          "name": "tokenId",
          "type": "uint256"
        }
      ],
      "name": "getIdentity",
      "outputs": [
        {
          "components": [
            {
              "internalType": "uint256",
              "name": "tokenId",
              "type": "uint256"
            },
            {
              "internalType": "string",
              "name": "agentName",
              "type": "string"
            },
            {
              "internalType": "string",
              "name": "role",
              "type": "string"
            },
            {
              "internalType": "address",
              "name": "owner",
              "type": "address"
            },
            {
              "internalType": "uint256",
              "name": "reputation",
              "type": "uint256"
            },
            {
              "internalType": "uint256",
              "name": "totalTasks",
              "type": "uint256"
            },
            {
              "internalType": "uint256",
              "name": "successfulTasks",
              "type": "uint256"
            },
            {
              "internalType": "uint256",
              "name": "mintedAt",
              "type": "uint256"
            },
            {
              "internalType": "bool",
              "name": "isActive",
              "type": "bool"
            }
          ],
          "internalType": "struct ERC8004Identity.AgentIdentity",
          "name": "",
          "type": "tuple"
        }
      ],
      "stateMutability": "view",
      "type": "function"
    },
    {
      "inputs": [
        {
          "internalType": "address",
          "name": "ownerAddr",
          "type": "address"
        }
      ],
      "name": "getOwnerIdentities",
      "outputs": [
        {
          "internalType": "uint256[]",
          "name": "",
          "type": "uint256[]"
        }
      ],
      "stateMutability": "view",
      "type": "function"
    },
    {
      "inputs": [
        {
          "internalType": "uint256",
          "name": "",
          "type": "uint256"
        }
      ],
      "name": "identities",
      "outputs": [
        {
          "internalType": "uint256",
          "name": "tokenId",
          "type": "uint256"
        },
        {
          "internalType": "string",
          "name": "agentName",
          "type": "string"
        },
        {
          "internalType": "string",
          "name": "role",
          "type": "string"
        },
        {
          "internalType": "address",
          "name": "owner",
          "type": "address"
        },
        {
          "internalType": "uint256",
          "name": "reputation",
          "type": "uint256"
        },
        {
          "internalType": "uint256",
          "name": "totalTasks",
          "type": "uint256"
        },
        {
          "internalType": "uint256",
          "name": "successfulTasks",
          "type": "uint256"
        },
        {
          "internalType": "uint256",
          "name": "mintedAt",
          "type": "uint256"
        },
        {
          "internalType": "bool",
          "name": "isActive",
          "type": "bool"
        }
      ],
      "stateMutability": "view",
      "type": "function"
    },
    {
      "inputs": [
        {
          "internalType": "address",
          "name": "owner",
          "type": "address"
        },
        {
          "internalType": "address",
          "name": "operator",
          "type": "address"
        }
      ],
      "name": "isApprovedForAll",
      "outputs": [
        {
          "internalType": "bool",
          "name": "",
          "type": "bool"
        }
      ],
      "stateMutability": "view",
      "type": "function"
    },
    {
      "inputs": [
        {
          "internalType": "string",
          "name": "agentName",
          "type": "string"
        },
        {
          "internalType": "string",
          "name": "role",
          "type": "string"
        }
      ],
      "name": "mintIdentity",
      "outputs": [
        {
          "internalType": "uint256",
          "name": "",
          "type": "uint256"
        }
      ],
      "stateMutability": "nonpayable",
      "type": "function"
    },
    {
      "inputs": [],
      "name": "name",
      "outputs": [
        {
          "internalType": "string",
          "name": "",
          "type": "string"
        }
      ],
      "stateMutability": "view",
      "type": "function"
    },
    {
      "inputs": [],
      "name": "owner",
      "outputs": [
        {
          "internalType": "address",
          "name": "",
          "type": "address"
        }
      ],
      "stateMutability": "view",
      "type": "function"
    },
    {
      "inputs": [
        {
          "internalType": "address",
          "name": "",
          "type": "address"
        },
        {
          "internalType": "uint256",
          "name": "",
          "type": "uint256"
        }
      ],
      "name": "ownerIdentities",
      "outputs": [
        {
          "internalType": "uint256",
          "name": "",
          "type": "uint256"
        }
      ],
      "stateMutability": "view",
      "type": "function"
    },
    {
      "inputs": [
        {
          "internalType": "uint256",
          "name": "tokenId",
          "type": "uint256"
        }
      ],
      "name": "ownerOf",
      "outputs": [
        {
          "internalType": "address",
          "name": "",
          "type": "address"
        }
      ],
      "stateMutability": "view",
      "type": "function"
    },
    {
      "inputs": [
        {
          "internalType": "uint256",
          "name": "tokenId",
          "type": "uint256"
        },
        {
          "internalType": "bool",
          "name": "success",
          "type": "bool"
        }
      ],
      "name": "recordTask",
      "outputs": [],
      "stateMutability": "nonpayable",
      "type": "function"
    },
    {
      "inputs": [],
      "name": "renounceOwnership",
      "outputs": [],
      "stateMutability": "nonpayable",
      "type": "function"
    },
    {
      "inputs": [
        {
          "internalType": "address",
          "name": "from",
          "type": "address"
        },
        {
          "internalType": "address",
          "name": "to",
          "type": "address"
        },
        {
          "internalType": "uint256",
          "name": "tokenId",
          "type": "uint256"
        }
      ],
      "name": "safeTransferFrom",
      "outputs": [],
      "stateMutability": "nonpayable",
      "type": "function"
    },
    {
      "inputs": [
        {
          "internalType": "address",
          "name": "from",
          "type": "address"
        },
        {
          "internalType": "address",
          "name": "to",
          "type": "address"
        },
        {
          "internalType": "uint256",
          "name": "tokenId",
          "type": "uint256"
        },
        {
          "internalType": "bytes",
          "name": "data",
          "type": "bytes"
        }
      ],
      "name": "safeTransferFrom",
      "outputs": [],
      "stateMutability": "nonpayable",
      "type": "function"
    },
    {
      "inputs": [
        {
          "internalType": "address",
          "name": "operator",
          "type": "address"
        },
        {
          "internalType": "bool",
          "name": "approved",
          "type": "bool"
        }
      ],
      "name": "setApprovalForAll",
      "outputs": [],
      "stateMutability": "nonpayable",
      "type": "function"
    },
    {
      "inputs": [
        {
          "internalType": "bytes4",
          "name": "interfaceId",
          "type": "bytes4"
        }
      ],
      "name": "supportsInterface",
      "outputs": [
        {
          "internalType": "bool",
          "name": "",
          "type": "bool"
        }
      ],
      "stateMutability": "view",
      "type": "function"
    },
    {
      "inputs": [],
      "name": "symbol",
      "outputs": [
        {
          "internalType": "string",
          "name": "",
          "type": "string"
        }
      ],
      "stateMutability": "view",
      "type": "function"
    },
    {
      "inputs": [
        {
          "internalType": "uint256",
          "name": "tokenId",
          "type": "uint256"
        }
      ],
      "name": "tokenURI",
      "outputs": [
        {
          "internalType": "string",
          "name": "",
          "type": "string"
        }
      ],
      "stateMutability": "view",
      "type": "function"
    },
    {
      "inputs": [],
      "name": "totalIdentities",
      "outputs": [
        {
          "internalType": "uint256",
          "name": "",
          "type": "uint256"
        }
      ],
      "stateMutability": "view",
      "type": "function"
    },
    {
      "inputs": [
        {
          "internalType": "address",
          "name": "from",
          "type": "address"
        },
        {
          "internalType": "address",
          "name": "to",
          "type": "address"
        },
        {
          "internalType": "uint256",
          "name": "tokenId",
          "type": "uint256"
        }
      ],
      "name": "transferFrom",
      "outputs": [],
      "stateMutability": "nonpayable",
      "type": "function"
    },
    {
      "inputs": [
        {
          "internalType": "address",
          "name": "newOwner",
          "type": "address"
        }
      ],
      "name": "transferOwnership",
      "outputs": [],
      "stateMutability": "nonpayable",
      "type": "function"
    }
  ],
  "bytecode": "0x60806040523480156200001157600080fd5b506040518060400160405280601681526020017f45524338303034204167656e74204964656e74697479000000000000000000008152506040518060400160405280600381526020016245414960e81b8152508160009081620000759190620001a2565b506001620000848282620001a2565b505050620000a16200009b620000a760201b60201c565b620000ab565b6200026e565b3390565b600680546001600160a01b038381166001600160a01b0319831681179093556040519116919082907f8be0079c531659141344cd1fd0a4f28419497f9722a3daafe3b4186f6b6457e090600090a35050565b634e487b7160e01b600052604160045260246000fd5b600181811c908216806200012857607f821691505b6020821081036200014957634e487b7160e01b600052602260045260246000fd5b50919050565b601f8211156200019d57600081815260208120601f850160051c81016020861015620001785750805b601f850160051c820191505b81811015620001995782815560010162000184565b5050505b505050565b81516001600160401b03811115620001be57620001be620000fd565b620001d681620001cf845462000113565b846200014f565b602080601f8311600181146200020e5760008415620001f55750858301515b600019600386901b1c1916600185901b17855562000199565b600085815260208120601f198616915b828110156200023f578886015182559484019460019091019084016200021e565b50858210156200025e5787850151600019600388901b60f8161c191681555b5050505050600190811b01905550565b61213e806200027e6000396000f3fe608060405234801561001057600080fd5b50600436106101585760003560e01c806395d89b41116100c3578063e985e9c51161007c578063e985e9c5146102f4578063eaaf77e614610307578063f2fde38b1461032f578063f5c5987b14610342578063f9197afd1461034a578063fe1d28fe1461035d57600080fd5b806395d89b4114610280578063a22cb46514610288578063b88d4fde1461029b578063c4e711bf146102ae578063c87b56dd146102c1578063d001bfc3146102d457600080fd5b806342842e0e1161011557806342842e0e146102005780636352211e1461021357806370a0823114610226578063715018a61461024757806385e3f0581461024f5780638da5cb5b1461026f57600080fd5b806301ffc9a71461015d57806304d511c81461018557806306fdde031461019a578063081812fc146101af578063095ea7b3146101da57806323b872dd146101ed575b600080fd5b61017061016b3660046118f9565b610370565b60405190151581526020015b60405180910390f35b610198610193366004611916565b6103c2565b005b6101a2610441565b60405161017c919061197f565b6101c26101bd366004611916565b6104d3565b6040516001600160a01b03909116815260200161017c565b6101986101e83660046119ae565b6104fa565b6101986101fb3660046119d8565b61060f565b61019861020e3660046119d8565b610640565b6101c2610221366004611916565b61065b565b610239610234366004611a14565b6106bb565b60405190815260200161017c565b610198610741565b61026261025d366004611916565b610755565b60405161017c9190611a2f565b6006546001600160a01b03166101c2565b6101a261094d565b610198610296366004611aec565b61095c565b6101986102a9366004611bab565b61096b565b6102396102bc3660046119ae565b6109a3565b6101a26102cf366004611916565b6109d4565b6102e76102e2366004611a14565b610a48565b60405161017c9190611c27565b610170610302366004611c6b565b610ab4565b61031a610315366004611916565b610ae2565b60405161017c99989796959493929190611c95565b61019861033d366004611a14565b610c49565b600754610239565b610198610358366004611d03565b610cc2565b61023961036b366004611d46565b610e0c565b60006001600160e01b031982166380ac58cd60e01b14806103a157506001600160e01b03198216635b5e139f60e01b145b806103bc57506301ffc9a760e01b6001600160e01b03198316145b92915050565b6000818152600860205260409020600301546001600160a01b031633146104255760405162461bcd60e51b81526020600482015260126024820152712737ba1034b232b73a34ba3c9037bbb732b960711b60448201526064015b60405180910390fd5b600090815260086020819052604090912001805460ff19169055565b60606000805461045090611daa565b80601f016020809104026020016040519081016040528092919081815260200182805461047c90611daa565b80156104c95780601f1061049e576101008083540402835291602001916104c9565b820191906000526020600020905b8154815290600101906020018083116104ac57829003601f168201915b5050505050905090565b60006104de82610f80565b506000908152600460205260409020546001600160a01b031690565b60006105058261065b565b9050806001600160a01b0316836001600160a01b0316036105725760405162461bcd60e51b815260206004820152602160248201527f4552433732313a20617070726f76616c20746f2063757272656e74206f776e656044820152603960f91b606482015260840161041c565b336001600160a01b038216148061058e575061058e8133610ab4565b6106005760405162461bcd60e51b815260206004820152603d60248201527f4552433732313a20617070726f76652063616c6c6572206973206e6f7420746f60448201527f6b656e206f776e6572206f7220617070726f76656420666f7220616c6c000000606482015260840161041c565b61060a8383610fdf565b505050565b610619338261104d565b6106355760405162461bcd60e51b815260040161041c90611de4565b61060a8383836110ac565b61060a8383836040518060200160405280600081525061096b565b6000818152600260205260408120546001600160a01b0316806103bc5760405162461bcd60e51b8152602060048201526018602482015277115490cdcc8c4e881a5b9d985b1a59081d1bdad95b88125160421b604482015260640161041c565b60006001600160a01b0382166107255760405162461bcd60e51b815260206004820152602960248201527f4552433732313a2061646472657373207a65726f206973206e6f7420612076616044820152683634b21037bbb732b960b91b606482015260840161041c565b506001600160a01b031660009081526003602052604090205490565b610749611210565b610753600061126a565b565b6107af60405180610120016040528060008152602001606081526020016060815260200160006001600160a01b03168152602001600081526020016000815260200160008152602001600081526020016000151581525090565b6008600083815260200190815260200160002060405180610120016040529081600082015481526020016001820180546107e890611daa565b80601f016020809104026020016040519081016040528092919081815260200182805461081490611daa565b80156108615780601f1061083657610100808354040283529160200191610861565b820191906000526020600020905b81548152906001019060200180831161084457829003601f168201915b5050505050815260200160028201805461087a90611daa565b80601f01602080910402602001604051908101604052809291908181526020018280546108a690611daa565b80156108f35780601f106108c8576101008083540402835291602001916108f3565b820191906000526020600020905b8154815290600101906020018083116108d657829003601f168201915b505050918352505060038201546001600160a01b03166020820152600482015460408201526005820154606082015260068201546080820152600782015460a082015260089091015460ff16151560c09091015292915050565b60606001805461045090611daa565b6109673383836112bc565b5050565b610975338361104d565b6109915760405162461bcd60e51b815260040161041c90611de4565b61099d8484848461138a565b50505050565b600960205281600052604060002081815481106109bf57600080fd5b90600052602060002001600091509150505481565b60606109df82610f80565b60006109f660408051602081019091526000815290565b90506000815111610a165760405180602001604052806000815250610a41565b80610a20846113bd565b604051602001610a31929190611e31565b6040516020818303038152906040525b9392505050565b6001600160a01b038116600090815260096020908152604091829020805483518184028101840190945280845260609392830182828015610aa857602002820191906000526020600020905b815481526020019060010190808311610a94575b50505050509050919050565b6001600160a01b03918216600090815260056020908152604080832093909416825291909152205460ff1690565b60086020526000908152604090208054600182018054919291610b0490611daa565b80601f0160208091040260200160405190810160405280929190818152602001828054610b3090611daa565b8015610b7d5780601f10610b5257610100808354040283529160200191610b7d565b820191906000526020600020905b815481529060010190602001808311610b6057829003601f168201915b505050505090806002018054610b9290611daa565b80601f0160208091040260200160405190810160405280929190818152602001828054610bbe90611daa565b8015610c0b5780601f10610be057610100808354040283529160200191610c0b565b820191906000526020600020905b815481529060010190602001808311610bee57829003601f168201915b5050506003840154600485015460058601546006870154600788015460089098015496976001600160a01b0390941696929550909350919060ff1689565b610c51611210565b6001600160a01b038116610cb65760405162461bcd60e51b815260206004820152602660248201527f4f776e61626c653a206e6577206f776e657220697320746865207a65726f206160448201526564647265737360d01b606482015260840161041c565b610cbf8161126a565b50565b6000828152600860205260409020600301546001600160a01b03163314610d205760405162461bcd60e51b81526020600482015260126024820152712737ba1034b232b73a34ba3c9037bbb732b960711b604482015260640161041c565b6000828152600860208190526040909120015460ff16610d785760405162461bcd60e51b81526020600482015260136024820152724964656e74697479206e6f742061637469766560681b604482015260640161041c565b6000828152600860205260408120600501805491610d9583611e76565b91905055508015610dc3576000828152600860205260408120600601805491610dbd83611e76565b91905055505b610dcc82611450565b817fe21fa966ca5cd02748c0752352d18c48165e61cb55b4c29cccf924b5a95fcff182604051610e00911515815260200190565b60405180910390a25050565b6007805460009182610e1d83611e76565b9091555050600754610e2f3382611532565b6040805161012081018252828152602080820187815282840187905233606084015260326080840152600060a0840181905260c084018190524260e08501526001610100850181905286825260089093529390932082518155925191929190820190610e9b9082611edd565b5060408201516002820190610eb09082611edd565b5060608201516003820180546001600160a01b0319166001600160a01b039092169190911790556080820151600482015560a0820151600582015560c0820151600682015560e08201516007820155610100909101516008909101805460ff1916911515919091179055336000818152600960209081526040808320805460018101825590845291909220018390555182907fedb58d646b3e5de1021eafeb508a86bc5087498e1d8da76803755957c398914c90610f719088908890611f9d565b60405180910390a39392505050565b6000818152600260205260409020546001600160a01b0316610cbf5760405162461bcd60e51b8152602060048201526018602482015277115490cdcc8c4e881a5b9d985b1a59081d1bdad95b88125160421b604482015260640161041c565b600081815260046020526040902080546001600160a01b0319166001600160a01b03841690811790915581906110148261065b565b6001600160a01b03167f8c5be1e5ebec7d5bd14f71427d1e84f3dd0314c0f7b2291e5b200ac8c7c3b92560405160405180910390a45050565b6000806110598361065b565b9050806001600160a01b0316846001600160a01b0316148061108057506110808185610ab4565b806110a45750836001600160a01b0316611099846104d3565b6001600160a01b0316145b949350505050565b826001600160a01b03166110bf8261065b565b6001600160a01b0316146110e55760405162461bcd60e51b815260040161041c90611fcb565b6001600160a01b0382166111475760405162461bcd60e51b8152602060048201526024808201527f4552433732313a207472616e7366657220746f20746865207a65726f206164646044820152637265737360e01b606482015260840161041c565b826001600160a01b031661115a8261065b565b6001600160a01b0316146111805760405162461bcd60e51b815260040161041c90611fcb565b600081815260046020908152604080832080546001600160a01b03199081169091556001600160a01b0387811680865260038552838620805460001901905590871680865283862080546001019055868652600290945282852080549092168417909155905184937fddf252ad1be2c89b69c2b068fc378daa952ba7f163c4a11628f55a4df523b3ef91a4505050565b6006546001600160a01b031633146107535760405162461bcd60e51b815260206004820181905260248201527f4f776e61626c653a2063616c6c6572206973206e6f7420746865206f776e6572604482015260640161041c565b600680546001600160a01b038381166001600160a01b0319831681179093556040519116919082907f8be0079c531659141344cd1fd0a4f28419497f9722a3daafe3b4186f6b6457e090600090a35050565b816001600160a01b0316836001600160a01b03160361131d5760405162461bcd60e51b815260206004820152601960248201527f4552433732313a20617070726f766520746f2063616c6c657200000000000000604482015260640161041c565b6001600160a01b03838116600081815260056020908152604080832094871680845294825291829020805460ff191686151590811790915591519182527f17307eab39ab6107e8899845ad3d59bd9653f200f220920489ca2b5937696c31910160405180910390a3505050565b6113958484846110ac565b6113a18484848461154c565b61099d5760405162461bcd60e51b815260040161041c90612010565b606060006113ca8361164d565b600101905060008167ffffffffffffffff8111156113ea576113ea611b1f565b6040519080825280601f01601f191660200182016040528015611414576020820181803683370190505b5090508181016020015b600019016f181899199a1a9b1b9c1cb0b131b232b360811b600a86061a8153600a850494508461141e57509392505050565b6000818152600860205260408120600581015490910361146e575050565b60008160050154826006015460646114869190612062565b6114909190612079565b9050600060648360050154116114cd5760328360050154116114c65760148360050154116114bf5760006114d0565b60026114d0565b60056114d0565b600a5b60ff16905060006114e1828461209b565b905060648111156114f0575060645b6004840181905560405181815285907ea4f8488cd701f9a77136eb5c91d5e2edef3c38001ca7148525acf8a26264819060200160405180910390a25050505050565b610967828260405180602001604052806000815250611725565b60006001600160a01b0384163b1561164257604051630a85bd0160e11b81526001600160a01b0385169063150b7a02906115909033908990889088906004016120ae565b6020604051808303816000875af19250505080156115cb575060408051601f3d908101601f191682019092526115c8918101906120eb565b60015b611628573d8080156115f9576040519150601f19603f3d011682016040523d82523d6000602084013e6115fe565b606091505b5080516000036116205760405162461bcd60e51b815260040161041c90612010565b805181602001fd5b6001600160e01b031916630a85bd0160e11b1490506110a4565b506001949350505050565b60008072184f03e93ff9f4daa797ed6e38ed64bf6a1f0160401b831061168c5772184f03e93ff9f4daa797ed6e38ed64bf6a1f0160401b830492506040015b6d04ee2d6d415b85acef810000000083106116b8576d04ee2d6d415b85acef8100000000830492506020015b662386f26fc1000083106116d657662386f26fc10000830492506010015b6305f5e10083106116ee576305f5e100830492506008015b612710831061170257612710830492506004015b60648310611714576064830492506002015b600a83106103bc5760010192915050565b61172f8383611758565b61173c600084848461154c565b61060a5760405162461bcd60e51b815260040161041c90612010565b6001600160a01b0382166117ae5760405162461bcd60e51b815260206004820181905260248201527f4552433732313a206d696e7420746f20746865207a65726f2061646472657373604482015260640161041c565b6000818152600260205260409020546001600160a01b0316156118135760405162461bcd60e51b815260206004820152601c60248201527f4552433732313a20746f6b656e20616c7265616479206d696e74656400000000604482015260640161041c565b6000818152600260205260409020546001600160a01b0316156118785760405162461bcd60e51b815260206004820152601c60248201527f4552433732313a20746f6b656e20616c7265616479206d696e74656400000000604482015260640161041c565b6001600160a01b038216600081815260036020908152604080832080546001019055848352600290915280822080546001600160a01b0319168417905551839291907fddf252ad1be2c89b69c2b068fc378daa952ba7f163c4a11628f55a4df523b3ef908290a45050565b6001600160e01b031981168114610cbf57600080fd5b60006020828403121561190b57600080fd5b8135610a41816118e3565b60006020828403121561192857600080fd5b5035919050565b60005b8381101561194a578181015183820152602001611932565b50506000910152565b6000815180845261196b81602086016020860161192f565b601f01601f19169290920160200192915050565b602081526000610a416020830184611953565b80356001600160a01b03811681146119a957600080fd5b919050565b600080604083850312156119c157600080fd5b6119ca83611992565b946020939093013593505050565b6000806000606084860312156119ed57600080fd5b6119f684611992565b9250611a0460208501611992565b9150604084013590509250925092565b600060208284031215611a2657600080fd5b610a4182611992565b602081528151602082015260006020830151610120806040850152611a58610140850183611953565b91506040850151601f19858403016060860152611a758382611953565b9250506060850151611a9260808601826001600160a01b03169052565b50608085015160a085015260a085015160c085015260c085015160e085015260e0850151610100818187015280870151915050611ad28286018215159052565b5090949350505050565b803580151581146119a957600080fd5b60008060408385031215611aff57600080fd5b611b0883611992565b9150611b1660208401611adc565b90509250929050565b634e487b7160e01b600052604160045260246000fd5b600067ffffffffffffffff80841115611b5057611b50611b1f565b604051601f8501601f19908116603f01168101908282118183101715611b7857611b78611b1f565b81604052809350858152868686011115611b9157600080fd5b858560208301376000602087830101525050509392505050565b60008060008060808587031215611bc157600080fd5b611bca85611992565b9350611bd860208601611992565b925060408501359150606085013567ffffffffffffffff811115611bfb57600080fd5b8501601f81018713611c0c57600080fd5b611c1b87823560208401611b35565b91505092959194509250565b6020808252825182820181905260009190848201906040850190845b81811015611c5f57835183529284019291840191600101611c43565b50909695505050505050565b60008060408385031215611c7e57600080fd5b611c8783611992565b9150611b1660208401611992565b60006101208b8352806020840152611caf8184018c611953565b90508281036040840152611cc3818b611953565b6001600160a01b039990991660608401525050608081019590955260a085019390935260c084019190915260e08301521515610100909101529392505050565b60008060408385031215611d1657600080fd5b82359150611b1660208401611adc565b600082601f830112611d3757600080fd5b610a4183833560208501611b35565b60008060408385031215611d5957600080fd5b823567ffffffffffffffff80821115611d7157600080fd5b611d7d86838701611d26565b93506020850135915080821115611d9357600080fd5b50611da085828601611d26565b9150509250929050565b600181811c90821680611dbe57607f821691505b602082108103611dde57634e487b7160e01b600052602260045260246000fd5b50919050565b6020808252602d908201527f4552433732313a2063616c6c6572206973206e6f7420746f6b656e206f776e6560408201526c1c881bdc88185c1c1c9bdd9959609a1b606082015260800190565b60008351611e4381846020880161192f565b835190830190611e5781836020880161192f565b01949350505050565b634e487b7160e01b600052601160045260246000fd5b600060018201611e8857611e88611e60565b5060010190565b601f82111561060a57600081815260208120601f850160051c81016020861015611eb65750805b601f850160051c820191505b81811015611ed557828155600101611ec2565b505050505050565b815167ffffffffffffffff811115611ef757611ef7611b1f565b611f0b81611f058454611daa565b84611e8f565b602080601f831160018114611f405760008415611f285750858301515b600019600386901b1c1916600185901b178555611ed5565b600085815260208120601f198616915b82811015611f6f57888601518255948401946001909101908401611f50565b5085821015611f8d5787850151600019600388901b60f8161c191681555b5050505050600190811b01905550565b604081526000611fb06040830185611953565b8281036020840152611fc28185611953565b95945050505050565b60208082526025908201527f4552433732313a207472616e736665722066726f6d20696e636f72726563742060408201526437bbb732b960d91b606082015260800190565b60208082526032908201527f4552433732313a207472616e7366657220746f206e6f6e20455243373231526560408201527131b2b4bb32b91034b6b83632b6b2b73a32b960711b606082015260800190565b80820281158282048414176103bc576103bc611e60565b60008261209657634e487b7160e01b600052601260045260246000fd5b500490565b808201808211156103bc576103bc611e60565b6001600160a01b03858116825284166020820152604081018390526080606082018190526000906120e190830184611953565b9695505050505050565b6000602082840312156120fd57600080fd5b8151610a41816118e356fea2646970667358221220c4487ec2722bee95b0a0e864b15634d9e7b26859b38b034c21576b06df483d5864736f6c63430008140033",
  "linkReferences": {},
  "deployedLinkReferences": {}
}