{
  "_format": "hh-sol-artifact-1",
  "contractName": "AgentRegistry",
  "sourceName": "contracts/AgentRegistry.sol",
  "abi": [
    {
      "inputs": [],
      "stateMutability": "nonpayable",
      "type": "constructor"
    },
    {
      "anonymous": false,
      "inputs": [
        {
          "indexed": true,
          "internalType": "uint256",
          "name": "agentId",
          "type": "uint256"
        },
        {
          "indexed": false,
          "internalType": "string",
          "name": "name",
          "type": "string"
        },
        {
          "indexed": false,
          "internalType": "string",
          "name": "role",
          "type": "string"
        },
        {
          "indexed": true,
          "internalType": "address",
          "name": "owner",
          "type": "address"
        }
      ],
      "name": "AgentDeployed",
      "type": "event"
    },
    {
      "anonymous": false,
      "inputs": [
        {
          "indexed": true,
          "internalType": "uint256",
          "name": "agentId",
          "type": "uint256"
        }
      ],
      "name": "AgentFired",
      "type": "event"
    },
    {
      "anonymous": false,
      "inputs": [
        {
          "indexed": true,
          "internalType": "uint256",
          "name": "masterId",
          "type": "uint256"
        },
        {
          "indexed": true,
          "internalType": "uint256",
          "name": "subAgentId",
          "type": "uint256"
        },
        {
          "indexed": false,
          "internalType": "uint256",
          "name": "payment",
          "type": "uint256"
        }
      ],
      "name": "AgentHired",
      "type": "event"
    },
    {
      "anonymous": false,
      "inputs": [
        {
          "indexed": true,
          "internalType": "uint256",
          "name": "agentId",
          "type": "uint256"
        },
        {
          "indexed": true,
          "internalType": "address",
          "name": "owner",
          "type": "address"
        },
        {
          "indexed": false,
          "internalType": "uint256",
          "name": "amount",
          "type": "uint256"
        }
      ],
      "name": "AgentPaid",
      "type": "event"
    },
    {
      "anonymous": false,
      "inputs": [
        {
          "indexed": true,
          "internalType": "address",
          "name": "owner",
          "type": "address"
        },
        {
          "indexed": true,
          "internalType": "address",
          "name": "approved",
          "type": "address"
        },
        {
          "indexed": true,
          "internalType": "uint256",
          "name": "tokenId",
          "type": "uint256"
        }
      ],
      "name": "Approval",
      "type": "event"
    },
    {
      "anonymous": false,
      "inputs": [
        {
          "indexed": true,
          "internalType": "address",
          "name": "owner",
          "type": "address"
        },
        {
          "indexed": true,
          "internalType": "address",
          "name": "operator",
          "type": "address"
        },
        {
          "indexed": false,
          "internalType": "bool",
          "name": "approved",
          "type": "bool"
        }
      ],
      "name": "ApprovalForAll",
      "type": "event"
    },
    {
      "anonymous": false,
      "inputs": [
        {
          "indexed": true,
          "internalType": "uint256",
          "name": "agentId",
          "type": "uint256"
        },
        {
          "indexed": true,
          "internalType": "uint256",
          "name": "decisionId",
          "type": "uint256"
        },
        {
          "indexed": false,
          "internalType": "string",
          "name": "action",
          "type": "string"
        },
        {
          "indexed": false,
          "internalType": "bool",
          "name": "success",
          "type": "bool"
        }
      ],
      "name": "DecisionRecorded",
      "type": "event"
    },
    {
      "anonymous": false,
      "inputs": [
        {
          "indexed": true,
          "internalType": "address",
          "name": "previousOwner",
          "type": "address"
        },
        {
          "indexed": true,
          "internalType": "address",
          "name": "newOwner",
          "type": "address"
        }
      ],
      "name": "OwnershipTransferred",
      "type": "event"
    },
    {
      "anonymous": false,
      "inputs": [
        {
          "indexed": true,
          "internalType": "uint256",
          "name": "agentId",
          "type": "uint256"
        },
        {
          "indexed": false,
          "internalType": "uint256",
          "name": "newReputation",
          "type": "uint256"
        }
      ],
      "name": "ReputationUpdated",
      "type": "event"
    },
    {
      "anonymous": false,
      "inputs": [
        {
          "indexed": true,
          "internalType": "address",
          "name": "from",
          "type": "address"
        },
        {
          "indexed": true,
          "internalType": "address",
          "name": "to",
          "type": "address"
        },
        {
          "indexed": true,
          "internalType": "uint256",
          "name": "tokenId",
          "type": "uint256"
        }
      ],
      "name": "Transfer",
      "type": "event"
    },
    {
      "inputs": [
        {
          "internalType": "uint256",
          "name": "",
          "type": "uint256"
        },
        {
          "internalType": "uint256",
          "name": "",
          "type": "uint256"
        }
      ],
      "name": "agentDecisions",
      "outputs": [
        {
          "internalType": "uint256",
          "name": "",
          "type": "uint256"
        }
      ],
      "stateMutability": "view",
      "type": "function"
    },
    {
      "inputs": [
        {
          "internalType": "uint256",
          "name": "",
          "type": "uint256"
        }
      ],
      "name": "agents",
      "outputs": [
        {
          "internalType": "uint256",
          "name": "id",
          "type": "uint256"
        },
        {
          "internalType": "string",
          "name": "name",
          "type": "string"
        },
        {
          "internalType": "string",
          "name": "role",
          "type": "string"
        },
        {
          "internalType": "address",
          "name": "owner",
          "type": "address"
        },
        {
          "internalType": "bool",
          "name": "isActive",
          "type": "bool"
        },
        {
          "internalType": "uint256",
          "name": "reputation",
          "type": "uint256"
        },
        {
          "internalType": "uint256",
          "name": "totalDecisions",
          "type": "uint256"
        },
        {
          "internalType": "uint256",
          "name": "correctDecisions",
          "type": "uint256"
        },
        {
          "internalType": "uint256",
          "name": "totalEarned",
          "type": "uint256"
        },
        {
          "internalType": "uint256",
          "name": "deployedAt",
          "type": "uint256"
        }
      ],
      "stateMutability": "view",
      "type": "function"
    },
    {
      "inputs": [
        {
          "internalType": "address",
          "name": "to",
          "type": "address"
        },
        {
          "internalType": "uint256",
          "name": "tokenId",
          "type": "uint256"
        }
      ],
      "name": "approve",
      "outputs": [],
      "stateMutability": "nonpayable",
      "type": "function"
    },
    {
      "inputs": [
        {
          "internalType": "address",
          "name": "owner",
          "type": "address"
        }
      ],
      "name": "balanceOf",
      "outputs": [
        {
          "internalType": "uint256",
          "name": "",
          "type": "uint256"
        }
      ],
      "stateMutability": "view",
      "type": "function"
    },
    {
      "inputs": [
        {
          "internalType": "uint256",
          "name": "",
          "type": "uint256"
        }
      ],
      "name": "decisions",
      "outputs": [
        {
          "internalType": "uint256",
          "name": "agentId",
          "type": "uint256"
        },
        {
          "internalType": "string",
          "name": "action",
          "type": "string"
        },
        {
          "internalType": "bytes32",
          "name": "dataHash",
          "type": "bytes32"
        },
        {
          "internalType": "uint256",
          "name": "timestamp",
          "type": "uint256"
        },
        {
          "internalType": "bool",
          "name": "success",
          "type": "bool"
        }
      ],
      "stateMutability": "view",
      "type": "function"
    },
    {
      "inputs": [
        {
          "internalType": "string",
          "name": "name",
          "type": "string"
        },
        {
          "internalType": "string",
          "name": "role",
          "type": "string"
        }
      ],
      "name": "deployAgent",
      "outputs": [
        {
          "internalType": "uint256",
          "name": "",
          "type": "uint256"
        }
      ],
      "stateMutability": "nonpayable",
      "type": "function"
    },
    {
      "inputs": [
        {
          "internalType": "uint256",
          "name": "agentId",
          "type": "uint256"
        }
      ],
      "name": "fireAgent",
      "outputs": [],
      "stateMutability": "nonpayable",
      "type": "function"
    },
    {
      "inputs": [
        {
          "internalType": "uint256",
          "name": "agentId",
          "type": "uint256"
        }
      ],
      "name": "getAccuracy",
      "outputs": [
        {
          "internalType": "uint256",
          "name": "",
          "type": "uint256"
        }
      ],
      "stateMutability": "view",
      "type": "function"
    },
    {
      "inputs": [
        {
          "internalType": "uint256",
          "name": "agentId",
          "type": "uint256"
        }
      ],
      "name": "getAgent",
      "outputs": [
        {
          "components": [
            {
              "internalType": "uint256",
              "name": "id",
              "type": "uint256"
            },
            {
              "internalType": "string",
              "name": "name",
              "type": "string"
            },
            {
              "internalType": "string",
              "name": "role",
              "type": "string"
            },
            {
              "internalType": "address",
              "name": "owner",
              "type": "address"
            },
            {
              "internalType": "bool",
              "name": "isActive",
              "type": "bool"
            },
            {
              "internalType": "uint256",
              "name": "reputation",
              "type": "uint256"
            },
            {
              "internalType": "uint256",
              "name": "totalDecisions",
              "type": "uint256"
            },
            {
              "internalType": "uint256",
              "name": "correctDecisions",
              "type": "uint256"
            },
            {
              "internalType": "uint256",
              "name": "totalEarned",
              "type": "uint256"
            },
            {
              "internalType": "uint256",
              "name": "deployedAt",
              "type": "uint256"
            }
          ],
          "internalType": "struct AgentRegistry.Agent",
          "name": "",
          "type": "tuple"
        }
      ],
      "stateMutability": "view",
      "type": "function"
    },
    {
      "inputs": [
        {
          "internalType": "uint256",
          "name": "agentId",
          "type": "uint256"
        }
      ],
      "name": "getAgentDecisions",
      "outputs": [
        {
          "internalType": "uint256[]",
          "name": "",
          "type": "uint256[]"
        }
      ],
      "stateMutability": "view",
      "type": "function"
    },
    {
      "inputs": [
        {
          "internalType": "uint256",
          "name": "tokenId",
          "type": "uint256"
        }
      ],
      "name": "getApproved",
      "outputs": [
        {
          "internalType": "address",
          "name": "",
          "type": "address"
        }
      ],
      "stateMutability": "view",
      "type": "function"
    },
    {
      "inputs": [
        {
          "internalType": "address",
          "name": "ownerAddr",
          "type": "address"
        }
      ],
      "name": "getOwnerAgents",
      "outputs": [
        {
          "internalType": "uint256[]",
          "name": "",
          "type": "uint256[]"
        }
      ],
      "stateMutability": "view",
      "type": "function"
    },
    {
      "inputs": [],
      "name": "getTotalAgents",
      "outputs": [
        {
          "internalType": "uint256",
          "name": "",
          "type": "uint256"
        }
      ],
      "stateMutability": "view",
      "type": "function"
    },
    {
      "inputs": [
        {
          "internalType": "uint256",
          "name": "masterId",
          "type": "uint256"
        },
        {
          "internalType": "uint256",
          "name": "subAgentId",
          "type": "uint256"
        }
      ],
      "name": "hireAgent",
      "outputs": [],
      "stateMutability": "payable",
      "type": "function"
    },
    {
      "inputs": [
        {
          "internalType": "address",
          "name": "owner",
          "type": "address"
        },
        {
          "internalType": "address",
          "name": "operator",
          "type": "address"
        }
      ],
      "name": "isApprovedForAll",
      "outputs": [
        {
          "internalType": "bool",
          "name": "",
          "type": "bool"
        }
      ],
      "stateMutability": "view",
      "type": "function"
    },
    {
      "inputs": [],
      "name": "name",
      "outputs": [
        {
          "internalType": "string",
          "name": "",
          "type": "string"
        }
      ],
      "stateMutability": "view",
      "type": "function"
    },
    {
      "inputs": [],
      "name": "owner",
      "outputs": [
        {
          "internalType": "address",
          "name": "",
          "type": "address"
        }
      ],
      "stateMutability": "view",
      "type": "function"
    },
    {
      "inputs": [
        {
          "internalType": "address",
          "name": "",
          "type": "address"
        },
        {
          "internalType": "uint256",
          "name": "",
          "type": "uint256"
        }
      ],
      "name": "ownerAgents",
      "outputs": [
        {
          "internalType": "uint256",
          "name": "",
          "type": "uint256"
        }
      ],
      "stateMutability": "view",
      "type": "function"
    },
    {
      "inputs": [
        {
          "internalType": "uint256",
          "name": "tokenId",
          "type": "uint256"
        }
      ],
      "name": "ownerOf",
      "outputs": [
        {
          "internalType": "address",
          "name": "",
          "type": "address"
        }
      ],
      "stateMutability": "view",
      "type": "function"
    },
    {
      "inputs": [
        {
          "internalType": "uint256",
          "name": "agentId",
          "type": "uint256"
        }
      ],
      "name": "payAgent",
      "outputs": [],
      "stateMutability": "payable",
      "type": "function"
    },
    {
      "inputs": [
        {
          "internalType": "uint256",
          "name": "agentId",
          "type": "uint256"
        },
        {
          "internalType": "string",
          "name": "action",
          "type": "string"
        },
        {
          "internalType": "bytes32",
          "name": "dataHash",
          "type": "bytes32"
        },
        {
          "internalType": "bool",
          "name": "success",
          "type": "bool"
        }
      ],
      "name": "recordDecision",
      "outputs": [
        {
          "internalType": "uint256",
          "name": "",
          "type": "uint256"
        }
      ],
      "stateMutability": "nonpayable",
      "type": "function"
    },
    {
      "inputs": [],
      "name": "renounceOwnership",
      "outputs": [],
      "stateMutability": "nonpayable",
      "type": "function"
    },
    {
      "inputs": [
        {
          "internalType": "address",
          "name": "from",
          "type": "address"
        },
        {
          "internalType": "address",
          "name": "to",
          "type": "address"
        },
        {
          "internalType": "uint256",
          "name": "tokenId",
          "type": "uint256"
        }
      ],
      "name": "safeTransferFrom",
      "outputs": [],
      "stateMutability": "nonpayable",
      "type": "function"
    },
    {
      "inputs": [
        {
          "internalType": "address",
          "name": "from",
          "type": "address"
        },
        {
          "internalType": "address",
          "name": "to",
          "type": "address"
        },
        {
          "internalType": "uint256",
          "name": "tokenId",
          "type": "uint256"
        },
        {
          "internalType": "bytes",
          "name": "data",
          "type": "bytes"
        }
      ],
      "name": "safeTransferFrom",
      "outputs": [],
      "stateMutability": "nonpayable",
      "type": "function"
    },
    {
      "inputs": [
        {
          "internalType": "address",
          "name": "operator",
          "type": "address"
        },
        {
          "internalType": "bool",
          "name": "approved",
          "type": "bool"
        }
      ],
      "name": "setApprovalForAll",
      "outputs": [],
      "stateMutability": "nonpayable",
      "type": "function"
    },
    {
      "inputs": [
        {
          "internalType": "bytes4",
          "name": "interfaceId",
          "type": "bytes4"
        }
      ],
      "name": "supportsInterface",
      "outputs": [
        {
          "internalType": "bool",
          "name": "",
          "type": "bool"
        }
      ],
      "stateMutability": "view",
      "type": "function"
    },
    {
      "inputs": [],
      "name": "symbol",
      "outputs": [
        {
          "internalType": "string",
          "name": "",
          "type": "string"
        }
      ],
      "stateMutability": "view",
      "type": "function"
    },
    {
      "inputs": [
        {
          "internalType": "uint256",
          "name": "tokenId",
          "type": "uint256"
        }
      ],
      "name": "tokenURI",
      "outputs": [
        {
          "internalType": "string",
          "name": "",
          "type": "string"
        }
      ],
      "stateMutability": "view",
      "type": "function"
    },
    {
      "inputs": [
        {
          "internalType": "address",
          "name": "from",
          "type": "address"
        },
        {
          "internalType": "address",
          "name": "to",
          "type": "address"
        },
        {
          "internalType": "uint256",
          "name": "tokenId",
          "type": "uint256"
        }
      ],
      "name": "transferFrom",
      "outputs": [],
      "stateMutability": "nonpayable",
      "type": "function"
    },
    {
      "inputs": [
        {
          "internalType": "address",
          "name": "newOwner",
          "type": "address"
        }
      ],
      "name": "transferOwnership",
      "outputs": [],
      "stateMutability": "nonpayable",
      "type": "function"
    }
  ],
  "bytecode": "0x60806040523480156200001157600080fd5b506040518060400160405280601081526020016f13585b9d1b19535a5b99081059d95b9d60821b815250604051806040016040528060038152602001624d4d4160e81b815250816000908162000068919062000195565b50600162000077828262000195565b505050620000946200008e6200009a60201b60201c565b6200009e565b62000261565b3390565b600680546001600160a01b038381166001600160a01b0319831681179093556040519116919082907f8be0079c531659141344cd1fd0a4f28419497f9722a3daafe3b4186f6b6457e090600090a35050565b634e487b7160e01b600052604160045260246000fd5b600181811c908216806200011b57607f821691505b6020821081036200013c57634e487b7160e01b600052602260045260246000fd5b50919050565b601f8211156200019057600081815260208120601f850160051c810160208610156200016b5750805b601f850160051c820191505b818110156200018c5782815560010162000177565b5050505b505050565b81516001600160401b03811115620001b157620001b1620000f0565b620001c981620001c2845462000106565b8462000142565b602080601f831160018114620002015760008415620001e85750858301515b600019600386901b1c1916600185901b1785556200018c565b600085815260208120601f198616915b82811015620002325788860151825594840194600190910190840162000211565b5085821015620002515787850151600019600388901b60f8161c191681555b5050505050600190811b01905550565b612c0880620002716000396000f3fe6080604052600436106101cd5760003560e01c80636500aee0116100f757806395d89b4111610095578063b88d4fde11610064578063b88d4fde14610551578063c87b56dd14610571578063e985e9c514610591578063f2fde38b146105da57600080fd5b806395d89b41146104cb578063a22cb465146104e0578063b4ad655214610500578063b829df821461052057600080fd5b80637585840a116100d15780637585840a1461044d57806383e81a461461046d5780638b08b2b41461048d5780638da5cb5b146104ad57600080fd5b80636500aee0146103f857806370a0823114610418578063715018a61461043857600080fd5b80632de5aaf71161016f578063513856c81161013e578063513856c81461036f5780635da66b3d146103a557806362febe4f146103b85780636352211e146103d857600080fd5b80632de5aaf7146102d657806332fdea15146103035780633731a16f1461033057806342842e0e1461034f57600080fd5b8063081812fc116101ab578063081812fc1461024b578063095ea7b3146102835780630b172570146102a357806323b872dd146102b657600080fd5b806301ffc9a7146101d257806305bdcd691461020757806306fdde0314610229575b600080fd5b3480156101de57600080fd5b506101f26101ed3660046122f9565b6105fa565b60405190151581526020015b60405180910390f35b34801561021357600080fd5b50610227610222366004612316565b61064c565b005b34801561023557600080fd5b5061023e610715565b6040516101fe919061237f565b34801561025757600080fd5b5061026b610266366004612316565b6107a7565b6040516001600160a01b0390911681526020016101fe565b34801561028f57600080fd5b5061022761029e3660046123ae565b6107ce565b6102276102b1366004612316565b6108e3565b3480156102c257600080fd5b506102276102d13660046123d8565b610a47565b3480156102e257600080fd5b506102f66102f1366004612316565b610a78565b6040516101fe9190612414565b34801561030f57600080fd5b5061032361031e366004612316565b610c84565b6040516101fe91906124cb565b34801561033c57600080fd5b506007545b6040519081526020016101fe565b34801561035b57600080fd5b5061022761036a3660046123d8565b610ce6565b34801561037b57600080fd5b5061038f61038a366004612316565b610d01565b6040516101fe9a9998979695949392919061250f565b6102276103b3366004612581565b610e70565b3480156103c457600080fd5b506103416103d33660046123ae565b611057565b3480156103e457600080fd5b5061026b6103f3366004612316565b611088565b34801561040457600080fd5b50610341610413366004612316565b6110e8565b34801561042457600080fd5b506103416104333660046125a3565b6112c8565b34801561044457600080fd5b5061022761134e565b34801561045957600080fd5b506103236104683660046125a3565b611362565b34801561047957600080fd5b5061034161048836600461267a565b6113cc565b34801561049957600080fd5b506103416104a8366004612581565b6115cf565b3480156104b957600080fd5b506006546001600160a01b031661026b565b3480156104d757600080fd5b5061023e6115eb565b3480156104ec57600080fd5b506102276104fb3660046126db565b6115fa565b34801561050c57600080fd5b5061034161051b36600461270e565b611609565b34801561052c57600080fd5b5061054061053b366004612316565b61178c565b6040516101fe959493929190612772565b34801561055d57600080fd5b5061022761056c3660046127aa565b611848565b34801561057d57600080fd5b5061023e61058c366004612316565b611880565b34801561059d57600080fd5b506101f26105ac366004612826565b6001600160a01b03918216600090815260056020908152604080832093909416825291909152205460ff1690565b3480156105e657600080fd5b506102276105f53660046125a3565b6118f3565b60006001600160e01b031982166380ac58cd60e01b148061062b57506001600160e01b03198216635b5e139f60e01b145b8061064657506301ffc9a760e01b6001600160e01b03198316145b92915050565b6000818152600960205260409020600301546001600160a01b031633148061068d5750336106826006546001600160a01b031690565b6001600160a01b0316145b6106cf5760405162461bcd60e51b815260206004820152600e60248201526d139bdd08185d5d1a1bdc9a5e995960921b60448201526064015b60405180910390fd5b600081815260096020526040808220600301805460ff60a01b191690555182917f38aa7f4a53f17170e045b2fed165ab451226e741c3fbab6a473e957c27c5dad791a250565b60606000805461072490612850565b80601f016020809104026020016040519081016040528092919081815260200182805461075090612850565b801561079d5780601f106107725761010080835404028352916020019161079d565b820191906000526020600020905b81548152906001019060200180831161078057829003601f168201915b5050505050905090565b60006107b28261196c565b506000908152600460205260409020546001600160a01b031690565b60006107d982611088565b9050806001600160a01b0316836001600160a01b0316036108465760405162461bcd60e51b815260206004820152602160248201527f4552433732313a20617070726f76616c20746f2063757272656e74206f776e656044820152603960f91b60648201526084016106c6565b336001600160a01b0382161480610862575061086281336105ac565b6108d45760405162461bcd60e51b815260206004820152603d60248201527f4552433732313a20617070726f76652063616c6c6572206973206e6f7420746f60448201527f6b656e206f776e6572206f7220617070726f76656420666f7220616c6c00000060648201526084016106c6565b6108de83836119cb565b505050565b600081815260096020526040902060030154600160a01b900460ff1661093e5760405162461bcd60e51b815260206004820152601060248201526f4167656e74206e6f742061637469766560801b60448201526064016106c6565b600034116109815760405162461bcd60e51b815260206004820152601060248201526f14185e5b595b9d081c995c5d5a5c995960821b60448201526064016106c6565b600081815260096020526040812060070180543492906109a29084906128a0565b90915550506000818152600960205260408082206003015490516001600160a01b03909116913480156108fc02929091818181858888f193505050501580156109ef573d6000803e3d6000fd5b506000818152600960209081526040918290206003015491513481526001600160a01b039092169183917f3a5abf7769d28f4878af16e2df8ce7ecac9e655ccd6a1620570eff84a958173b910160405180910390a350565b610a513382611a39565b610a6d5760405162461bcd60e51b81526004016106c6906128b3565b6108de838383611ab7565b610ad960405180610140016040528060008152602001606081526020016060815260200160006001600160a01b0316815260200160001515815260200160008152602001600081526020016000815260200160008152602001600081525090565b600960008381526020019081526020016000206040518061014001604052908160008201548152602001600182018054610b1290612850565b80601f0160208091040260200160405190810160405280929190818152602001828054610b3e90612850565b8015610b8b5780601f10610b6057610100808354040283529160200191610b8b565b820191906000526020600020905b815481529060010190602001808311610b6e57829003601f168201915b50505050508152602001600282018054610ba490612850565b80601f0160208091040260200160405190810160405280929190818152602001828054610bd090612850565b8015610c1d5780601f10610bf257610100808354040283529160200191610c1d565b820191906000526020600020905b815481529060010190602001808311610c0057829003601f168201915b505050918352505060038201546001600160a01b0381166020830152600160a01b900460ff16151560408201526004820154606082015260058201546080820152600682015460a0820152600782015460c082015260089091015460e09091015292915050565b6000818152600c6020908152604091829020805483518184028101840190945280845260609392830182828015610cda57602002820191906000526020600020905b815481526020019060010190808311610cc6575b50505050509050919050565b6108de83838360405180602001604052806000815250611848565b60096020526000908152604090208054600182018054919291610d2390612850565b80601f0160208091040260200160405190810160405280929190818152602001828054610d4f90612850565b8015610d9c5780601f10610d7157610100808354040283529160200191610d9c565b820191906000526020600020905b815481529060010190602001808311610d7f57829003601f168201915b505050505090806002018054610db190612850565b80601f0160208091040260200160405190810160405280929190818152602001828054610ddd90612850565b8015610e2a5780601f10610dff57610100808354040283529160200191610e2a565b820191906000526020600020905b815481529060010190602001808311610e0d57829003601f168201915b505050506003830154600484015460058501546006860154600787015460089097015495966001600160a01b03851696600160a01b90950460ff1695509293919290918a565b600082815260096020526040902060030154600160a01b900460ff16610ed85760405162461bcd60e51b815260206004820152601760248201527f4d6173746572206167656e74206e6f742061637469766500000000000000000060448201526064016106c6565b600081815260096020526040902060030154600160a01b900460ff16610f375760405162461bcd60e51b8152602060048201526014602482015273537562206167656e74206e6f742061637469766560601b60448201526064016106c6565b6000828152600960205260409020600301546001600160a01b03163314610f995760405162461bcd60e51b81526020600482015260166024820152752737ba1036b0b9ba32b91030b3b2b73a1037bbb732b960511b60448201526064016106c6565b6000818152600960205260409020600301546001600160a01b031634156110175760008281526009602052604081206007018054349290610fdb9084906128a0565b90915550506040516001600160a01b038216903480156108fc02916000818181858888f19350505050158015611015573d6000803e3d6000fd5b505b81837f30207e6c1201ef39c77222ceebfb907e9430f232d0fabbf4a700956e8b86b9453460405161104a91815260200190565b60405180910390a3505050565b600b602052816000526040600020818154811061107357600080fd5b90600052602060002001600091509150505481565b6000818152600260205260408120546001600160a01b0316806106465760405162461bcd60e51b8152602060048201526018602482015277115490cdcc8c4e881a5b9d985b1a59081d1bdad95b88125160421b60448201526064016106c6565b6000818152600960209081526040808320815161014081019092528054825260018101805485948401919061111c90612850565b80601f016020809104026020016040519081016040528092919081815260200182805461114890612850565b80156111955780601f1061116a57610100808354040283529160200191611195565b820191906000526020600020905b81548152906001019060200180831161117857829003601f168201915b505050505081526020016002820180546111ae90612850565b80601f01602080910402602001604051908101604052809291908181526020018280546111da90612850565b80156112275780601f106111fc57610100808354040283529160200191611227565b820191906000526020600020905b81548152906001019060200180831161120a57829003601f168201915b505050918352505060038201546001600160a01b0381166020830152600160a01b900460ff16151560408201526004820154606082015260058201546080820152600682015460a0820152600782015460c08083019190915260089092015460e0909101528101519091506000036112a25750600092915050565b60c081015160e08201516112b7906064612900565b6112c19190612917565b9392505050565b60006001600160a01b0382166113325760405162461bcd60e51b815260206004820152602960248201527f4552433732313a2061646472657373207a65726f206973206e6f7420612076616044820152683634b21037bbb732b960b91b60648201526084016106c6565b506001600160a01b031660009081526003602052604090205490565b611356611c1b565b6113606000611c75565b565b6001600160a01b0381166000908152600b6020908152604091829020805483518184028101840190945280845260609392830182828015610cda5760200282019190600052602060002090815481526020019060010190808311610cc65750505050509050919050565b6000848152600960205260408120600301546001600160a01b031633146114275760405162461bcd60e51b815260206004820152600f60248201526e2737ba1030b3b2b73a1037bbb732b960891b60448201526064016106c6565b600085815260096020526040902060030154600160a01b900460ff166114825760405162461bcd60e51b815260206004820152601060248201526f4167656e74206e6f742061637469766560801b60448201526064016106c6565b6008805490600061149283612939565b90915550506008546040805160a081018252878152602080820188815282840188905242606084015286151560808401526000858152600a90925292902081518155915190919060018201906114e890826129a0565b506040828101516002830155606083015160038301556080909201516004909101805460ff19169115159190911790556000878152600c60209081528282208054600181018255908352818320018490558882526009905290812060050180549161155283612939565b9190505550821561158057600086815260096020526040812060060180549161157a83612939565b91905055505b61158986611cc7565b80867f9a4914ed0ce6100e54a4ed9999536560142c6631fae9baab87128dc9aacbd50a87866040516115bc929190612a60565b60405180910390a390505b949350505050565b600c602052816000526040600020818154811061107357600080fd5b60606001805461072490612850565b611605338383611da9565b5050565b600780546000918261161a83612939565b909155505060075461162c3382611e6f565b60408051610140810182528281526020808201878152828401879052336060840152600160808401819052603260a0850152600060c0850181905260e0850181905261010085018190524261012086015286815260099093529390912082518155905191929091908201906116a190826129a0565b50604082015160028201906116b690826129a0565b50606082015160038201805460808501511515600160a01b026001600160a81b03199091166001600160a01b039093169290921791909117905560a0820151600482015560c0820151600582015560e08201516006820155610100820151600782015561012090910151600890910155336000818152600b60209081526040808320805460018101825590845291909220018390555182907f7546df796bc3ff5839ad48f18dd3520d7d8018e706b83404a553c4b41fcc46d09061177d9088908890612a84565b60405180910390a39392505050565b600a60205260009081526040902080546001820180549192916117ae90612850565b80601f01602080910402602001604051908101604052809291908181526020018280546117da90612850565b80156118275780601f106117fc57610100808354040283529160200191611827565b820191906000526020600020905b81548152906001019060200180831161180a57829003601f168201915b50505050600283015460038401546004909401549293909290915060ff1685565b6118523383611a39565b61186e5760405162461bcd60e51b81526004016106c6906128b3565b61187a84848484611e89565b50505050565b606061188b8261196c565b60006118a260408051602081019091526000815290565b905060008151116118c257604051806020016040528060008152506112c1565b806118cc84611ebc565b6040516020016118dd929190612ab2565b6040516020818303038152906040529392505050565b6118fb611c1b565b6001600160a01b0381166119605760405162461bcd60e51b815260206004820152602660248201527f4f776e61626c653a206e6577206f776e657220697320746865207a65726f206160448201526564647265737360d01b60648201526084016106c6565b61196981611c75565b50565b6000818152600260205260409020546001600160a01b03166119695760405162461bcd60e51b8152602060048201526018602482015277115490cdcc8c4e881a5b9d985b1a59081d1bdad95b88125160421b60448201526064016106c6565b600081815260046020526040902080546001600160a01b0319166001600160a01b0384169081179091558190611a0082611088565b6001600160a01b03167f8c5be1e5ebec7d5bd14f71427d1e84f3dd0314c0f7b2291e5b200ac8c7c3b92560405160405180910390a45050565b600080611a4583611088565b9050806001600160a01b0316846001600160a01b03161480611a8c57506001600160a01b0380821660009081526005602090815260408083209388168352929052205460ff165b806115c75750836001600160a01b0316611aa5846107a7565b6001600160a01b031614949350505050565b826001600160a01b0316611aca82611088565b6001600160a01b031614611af05760405162461bcd60e51b81526004016106c690612ae1565b6001600160a01b038216611b525760405162461bcd60e51b8152602060048201526024808201527f4552433732313a207472616e7366657220746f20746865207a65726f206164646044820152637265737360e01b60648201526084016106c6565b826001600160a01b0316611b6582611088565b6001600160a01b031614611b8b5760405162461bcd60e51b81526004016106c690612ae1565b600081815260046020908152604080832080546001600160a01b03199081169091556001600160a01b0387811680865260038552838620805460001901905590871680865283862080546001019055868652600290945282852080549092168417909155905184937fddf252ad1be2c89b69c2b068fc378daa952ba7f163c4a11628f55a4df523b3ef91a4505050565b6006546001600160a01b031633146113605760405162461bcd60e51b815260206004820181905260248201527f4f776e61626c653a2063616c6c6572206973206e6f7420746865206f776e657260448201526064016106c6565b600680546001600160a01b038381166001600160a01b0319831681179093556040519116919082907f8be0079c531659141344cd1fd0a4f28419497f9722a3daafe3b4186f6b6457e090600090a35050565b60008181526009602052604081206005810154909103611ce5575050565b6000816005015482600601546064611cfd9190612900565b611d079190612917565b905060006064836005015411611d44576032836005015411611d3d576014836005015411611d36576000611d47565b6002611d47565b6005611d47565b600a5b60ff1690506000611d5882846128a0565b90506064811115611d67575060645b6004840181905560405181815285907ea4f8488cd701f9a77136eb5c91d5e2edef3c38001ca7148525acf8a26264819060200160405180910390a25050505050565b816001600160a01b0316836001600160a01b031603611e0a5760405162461bcd60e51b815260206004820152601960248201527f4552433732313a20617070726f766520746f2063616c6c65720000000000000060448201526064016106c6565b6001600160a01b03838116600081815260056020908152604080832094871680845294825291829020805460ff191686151590811790915591519182527f17307eab39ab6107e8899845ad3d59bd9653f200f220920489ca2b5937696c31910161104a565b611605828260405180602001604052806000815250611f4f565b611e94848484611ab7565b611ea084848484611f82565b61187a5760405162461bcd60e51b81526004016106c690612b26565b60606000611ec983612080565b600101905060008167ffffffffffffffff811115611ee957611ee96125be565b6040519080825280601f01601f191660200182016040528015611f13576020820181803683370190505b5090508181016020015b600019016f181899199a1a9b1b9c1cb0b131b232b360811b600a86061a8153600a8504945084611f1d57509392505050565b611f598383612158565b611f666000848484611f82565b6108de5760405162461bcd60e51b81526004016106c690612b26565b60006001600160a01b0384163b1561207857604051630a85bd0160e11b81526001600160a01b0385169063150b7a0290611fc6903390899088908890600401612b78565b6020604051808303816000875af1925050508015612001575060408051601f3d908101601f19168201909252611ffe91810190612bb5565b60015b61205e573d80801561202f576040519150601f19603f3d011682016040523d82523d6000602084013e612034565b606091505b5080516000036120565760405162461bcd60e51b81526004016106c690612b26565b805181602001fd5b6001600160e01b031916630a85bd0160e11b1490506115c7565b5060016115c7565b60008072184f03e93ff9f4daa797ed6e38ed64bf6a1f0160401b83106120bf5772184f03e93ff9f4daa797ed6e38ed64bf6a1f0160401b830492506040015b6d04ee2d6d415b85acef810000000083106120eb576d04ee2d6d415b85acef8100000000830492506020015b662386f26fc10000831061210957662386f26fc10000830492506010015b6305f5e1008310612121576305f5e100830492506008015b612710831061213557612710830492506004015b60648310612147576064830492506002015b600a83106106465760010192915050565b6001600160a01b0382166121ae5760405162461bcd60e51b815260206004820181905260248201527f4552433732313a206d696e7420746f20746865207a65726f206164647265737360448201526064016106c6565b6000818152600260205260409020546001600160a01b0316156122135760405162461bcd60e51b815260206004820152601c60248201527f4552433732313a20746f6b656e20616c7265616479206d696e7465640000000060448201526064016106c6565b6000818152600260205260409020546001600160a01b0316156122785760405162461bcd60e51b815260206004820152601c60248201527f4552433732313a20746f6b656e20616c7265616479206d696e7465640000000060448201526064016106c6565b6001600160a01b038216600081815260036020908152604080832080546001019055848352600290915280822080546001600160a01b0319168417905551839291907fddf252ad1be2c89b69c2b068fc378daa952ba7f163c4a11628f55a4df523b3ef908290a45050565b6001600160e01b03198116811461196957600080fd5b60006020828403121561230b57600080fd5b81356112c1816122e3565b60006020828403121561232857600080fd5b5035919050565b60005b8381101561234a578181015183820152602001612332565b50506000910152565b6000815180845261236b81602086016020860161232f565b601f01601f19169290920160200192915050565b6020815260006112c16020830184612353565b80356001600160a01b03811681146123a957600080fd5b919050565b600080604083850312156123c157600080fd5b6123ca83612392565b946020939093013593505050565b6000806000606084860312156123ed57600080fd5b6123f684612392565b925061240460208501612392565b9150604084013590509250925092565b60208152815160208201526000602083015161014080604085015261243d610160850183612353565b91506040850151601f1985840301606086015261245a8382612353565b925050606085015161247760808601826001600160a01b03169052565b50608085015180151560a08601525060a085015160c085015260c085015160e085015260e0850151610100818187015280870151915050610120818187015280870151838701525050508091505092915050565b6020808252825182820181905260009190848201906040850190845b81811015612503578351835292840192918401916001016124e7565b50909695505050505050565b60006101408c83528060208401526125298184018d612353565b9050828103604084015261253d818c612353565b6001600160a01b039a909a1660608401525050951515608087015260a086019490945260c085019290925260e0840152610100830152610120909101529392505050565b6000806040838503121561259457600080fd5b50508035926020909101359150565b6000602082840312156125b557600080fd5b6112c182612392565b634e487b7160e01b600052604160045260246000fd5b600067ffffffffffffffff808411156125ef576125ef6125be565b604051601f8501601f19908116603f01168101908282118183101715612617576126176125be565b8160405280935085815286868601111561263057600080fd5b858560208301376000602087830101525050509392505050565b600082601f83011261265b57600080fd5b6112c1838335602085016125d4565b803580151581146123a957600080fd5b6000806000806080858703121561269057600080fd5b84359350602085013567ffffffffffffffff8111156126ae57600080fd5b6126ba8782880161264a565b935050604085013591506126d06060860161266a565b905092959194509250565b600080604083850312156126ee57600080fd5b6126f783612392565b91506127056020840161266a565b90509250929050565b6000806040838503121561272157600080fd5b823567ffffffffffffffff8082111561273957600080fd5b6127458683870161264a565b9350602085013591508082111561275b57600080fd5b506127688582860161264a565b9150509250929050565b85815260a06020820152600061278b60a0830187612353565b6040830195909552506060810192909252151560809091015292915050565b600080600080608085870312156127c057600080fd5b6127c985612392565b93506127d760208601612392565b925060408501359150606085013567ffffffffffffffff8111156127fa57600080fd5b8501601f8101871361280b57600080fd5b61281a878235602084016125d4565b91505092959194509250565b6000806040838503121561283957600080fd5b61284283612392565b915061270560208401612392565b600181811c9082168061286457607f821691505b60208210810361288457634e487b7160e01b600052602260045260246000fd5b50919050565b634e487b7160e01b600052601160045260246000fd5b808201808211156106465761064661288a565b6020808252602d908201527f4552433732313a2063616c6c6572206973206e6f7420746f6b656e206f776e6560408201526c1c881bdc88185c1c1c9bdd9959609a1b606082015260800190565b80820281158282048414176106465761064661288a565b60008261293457634e487b7160e01b600052601260045260246000fd5b500490565b60006001820161294b5761294b61288a565b5060010190565b601f8211156108de57600081815260208120601f850160051c810160208610156129795750805b601f850160051c820191505b8181101561299857828155600101612985565b505050505050565b815167ffffffffffffffff8111156129ba576129ba6125be565b6129ce816129c88454612850565b84612952565b602080601f831160018114612a0357600084156129eb5750858301515b600019600386901b1c1916600185901b178555612998565b600085815260208120601f198616915b82811015612a3257888601518255948401946001909101908401612a13565b5085821015612a505787850151600019600388901b60f8161c191681555b5050505050600190811b01905550565b604081526000612a736040830185612353565b905082151560208301529392505050565b604081526000612a976040830185612353565b8281036020840152612aa98185612353565b95945050505050565b60008351612ac481846020880161232f565b835190830190612ad881836020880161232f565b01949350505050565b60208082526025908201527f4552433732313a207472616e736665722066726f6d20696e636f72726563742060408201526437bbb732b960d91b606082015260800190565b60208082526032908201527f4552433732313a207472616e7366657220746f206e6f6e20455243373231526560408201527131b2b4bb32b91034b6b83632b6b2b73a32b960711b606082015260800190565b6001600160a01b0385811682528416602082015260408101839052608060608201819052600090612bab90830184612353565b9695505050505050565b600060208284031215612bc757600080fd5b81516112c1816122e356fea2646970667358221220bb6feeb25b9be8ec0e8438017257dfe6ef1184760f9e2405976ddbfffce5aa3864736f6c63430008140033",
  "linkReferences": {},
  "deployedLinkReferences": {}
}